S0100000575347415F5043422E73726563AE
S11300000C94FE000C9417010C9417010C94170126
S11300100C9417010C9417010C9417010C941701FC
S11300200C9417010C9417010C9417010C941701EC
S11300300C9417010C9417010C9417010C941701DC
S11300400C9417010C9417010C9417010C941701CC
S11300500C9417010C9417010C9417010C941701BC
S11300600C9417010C9417010C9417010C941701AC
S11300700C9417010C9417010C9417010C9417019C
S11300800C9417010C9417010C94AF010C941701F4
S11300900C9417010C9417010C9417010C9417017C
S11300A00C9417010C9417010C9417010C9417016C
S11300B00C9417010C9417010C9417010C9417015C
S11300C00C9417010C9417010C9417010C9417014C
S11300D00C9417010C9417010C9417010C9417013C
S11300E00C9417010C9417010C9417010C9417012C
S11300F00C9417010C9417010C9417010C9417011C
S11301000C9417010C9417010C9419010C94170109
S11301100C9417010C9417010C9417010C941701FB
S11301200C9417010C9417010C9417010C941701EB
S11301300C9417010C9417010C9417010C941701DB
S11301400C9417010C9417010C9417010C941701CB
S11301500C9417010C9417010C9417010C941701BB
S11301600C9417010C9417010C9417010C941701AB
S11301700C9417010C9417010C9417010C9417019B
S11301800C9417010C9417010C9417010C9417018B
S11301900C9417010C9417010C9417010C9417017B
S11301A00C9417010C9417010C9417010C9417016B
S11301B00C9417010C9417010C9417010C9417015B
S11301C00C9417010C9417010C9417010C9417014B
S11301D00C9417010C9417010C9417010C9417013B
S11301E00C9417010C9417010C9417010C9417012B
S11301F00C9417010C9417010C94170111241FBEC1
S1130200CFEFCDBFDFE3DEBF00E00CBF10E2A0E024
S1130210B0E2E4E8F4E000E00BBF02C007900D9206
S1130220A830B107D9F70E94C0010C9440020C9485
S113023000001F920F920FB60F9211248F9381E04A
S11302408093E1078093E7078F910F900FBE0F9083
S11302501F901895E1E6F6E080E1808380E88083D2
S113026080E48093620680E28083E1E2F6E084E049
S1130270808388E0808382E08093220685E58093F2
S1130280C0091092C1090895CF93DF93A5E2B6E0A7
S113029088E08C938FE193E00197F1F700C00000B0
S11302A084E080932606CFE1D3E02197F1F700C0E4
S11302B00000EFE1F3E03197F1F700C000008C9308
S11302C0CFE3DFE12197F1F700C000008C93EFE367
S11302D0FFE13197F1F700C00000E3ECF9E091E1B0
S11302E09083CFE1D3E02197F1F700C00000908321
S11302F0CFE1D3E02197F1F700C0000092E49083AE
S1130300CFE1D3E02197F1F700C000001082CFE1E4
S1130310D3E02197F1F700C0000096E09083CFE18D
S1130320D3E02197F1F700C0000090E190838C9313
S1130330EFE1F3E03197F1F700C00000DF91CF91D6
S1130340089582E18093310682E080932A068093A7
S11303502906E0EAF0E082818260828308951F9298
S11303600F920FB60F9211248F9381E08093E107CF
S11303708093E7078F910F900FBE0F901F901895F1
S1130380CF93DF93CDB7DEB72897CDBFDEBF0E94F2
S1130390FD010E9417020E942A012FEF83EC99E0CD
S11303A0215080409040E1F700C000000E944401C9
S11303B00E94A101789488E0E0E0F0E2DE01119669
S11303C001900D928A95E1F77E01E9E0EE0EF11CB1
S11303D08E010F5F1F4FF80181918F010E94380237
S11303E00E151F05C1F7FFEF21EE84E0F150204008
S11303F08040E1F700C00000EBCFE0E5F0E0808151
S113040086608083818182FFFDCFE0E5F0E0818119
S113041081FFFDCF81E08093600098ED94BF8093CD
S11304204000E0E5F0E080818E7F80830895E1EA7A
S1130430F6E088E0808380E1808390E29083E2EAC2
S1130440F6E094E0908390E4908390E89083809326
S1130450A50680ED8093A70B83E88093A60B1092EA
S1130460A30B83E08093A50B88E18093A40B0895EC
S1130470E1EAFBE0908195FFFDCF8093A00B089506
S1070480F894FFCF1A
S10B048400656269606163FF19
S9030000FC
